:020000040800F2
:100000000004002045010008A9010008A101000822
:10001000A5010008990100084D0300080000000038
:10002000000000000000000000000000B101000816
:100030009D01000800000000AD010008E102000879
:100040005F0100085F0100085F0100085F01000810
:100050005F0100085F0100085F0100085F01000800
:100060005F0100085F0100085F0100085F010008F0
:100070005F0100085F0100085F0100085F010008E0
:100080005F0100085F0100085F0100085F010008D0
:100090005F0100085F0100085F0100085F010008C0
:1000A0005F0100085F0100085F0100085F010008B0
:1000B0005F0100085F0100085F0100085F010008A0
:1000C0005F0100085F0100085F0100085F01000890
:1000D0005F0100085F0100085F0100085F01000880
:1000E0005F0100085F0100085F0100085F01000870
:1000F0005F0100085F0100085F0100085F01000860
:100100005F0100085F0100085F0100085F0100084F
:100110005F0100085F0100085F0100085F0100083F
:100120005F0100085F0100085F0100085F0100082F
:10013000DFF80CD000F018F8004800475103000821
:10014000000400200648804706480047FEE7FEE717
:10015000FEE7FEE7FEE7FEE7FEE7FEE7FEE7FEE777
:10016000E5020008310100081CB509480090094863
:1001700001900546009C06E0E06840F0010394E829
:10018000070098471034AC42F6D3FFF7D5FF0000C4
:100190007803000888030008FFE7FEE770470000C7
:1001A000FFE7FEE7FFE7FEE770470000704700004B
:1001B0007047000080B500F001F880BD84B00020D9
:1001C0000390029041F20001C4F20201086840F479
:1001D00080300860FFE741F20000C4F202000068CE
:1001E00000F400300290039801300390FFE7029979
:1001F0000020019039B9FFE70398B0F5A06018BF5F
:1002000001200190FFE70198C0070028E3D1FFE734
:1002100041F20000C4F2020000688003002803D508
:10022000FFE70120029002E000200290FFE7029821
:10023000012851D1FFE742F20001C4F2020108682F
:1002400040F010000860086820F0070008600868A7
:1002500040F00200086041F20401C4F20201009182
:100260000868086008680860086840F480600860F2
:10027000086820F47C100860086840F4E810086002
:1002800041F20001C4F20201086840F08070086089
:10029000FFE741F20000C4F202000068800100287C
:1002A00001D4FFE7F5E741F20401C4F20201086856
:1002B00020F003000860086840F002000860FFE7D3
:1002C00041F20400C4F20200006800F00C000828AB
:1002D00001D0FFE7F4E700E0FFE704B0704700005B
:1002E0007047000080B541F20002C4F202021068BB
:1002F00040F00100106041F20401C4F202010868FC
:100300000023CFF6FF031840086010684FF6FF7314
:10031000CFF6F66318401060106820F4802010605B
:10032000086820F4FE00086041F20801C4F20201EE
:100330004FF41F000860FFF73DFF4EF60851CEF264
:1003400000014FF00060086080BD0000FFE7FEE79D
:1003500081B00020009001B0704702E008C8121F71
:1003600008C1002AFAD170477047002001E001C19E
:10037000121F002AFBD170478803000800000020EC
:08038000000400006A030008FC
:0400000508000131BD
:00000001FF
