:020000040800F2
:1000000000040020450100081504000885030008CD
:100010001104000899010008F10500080000000023
:10002000000000000000000000000000550400086F
:100030009D01000800000000190400088505000863
:100040005F0100085F0100085F0100085F01000810
:100050005F0100085F0100085F0100085F01000800
:100060005F0100085F0100085F0100085F010008F0
:100070005F0100085F0100085F0100085F010008E0
:100080005F0100085F0100085F0100085F010008D0
:100090005F0100085F0100085F0100085F010008C0
:1000A0005F0100085F0100085F0100085F010008B0
:1000B0005F0100085F0100085F0100085F010008A0
:1000C0005F0100085F0100085F0100085F01000890
:1000D0005F0100085F0100085F0100085F01000880
:1000E0005F0100085F0100085F0100085F01000870
:1000F0005F0100085F0100085F0100085F01000860
:100100005F0100085F0100085F0100085F0100084F
:100110005F0100085F0100085F0100085F0100083F
:100120005F0100085F0100085F0100085F0100082F
:10013000DFF80CD000F018F800480047F50500087B
:10014000000400200648804706480047FEE7FEE717
:10015000FEE7FEE7FEE7FEE7FEE7FEE7FEE7FEE777
:1001600089050008310100081CB5094800900948BC
:1001700001900546009C06E0E06840F0010394E829
:10018000070098471034AC42F6D3FFF7D5FF0000C4
:100190004406000854060008FFE7FEE77047000029
:1001A00088B007900691002005900490039002907B
:1001B000019000900698C07800F00F000590069816
:1001C000C078C006002806D5FFE706988178059814
:1001D00008430590FFE70698007800284BD0FFE71A
:1001E00007980068019000200390FFE70398072814
:1001F0003DD8FFE7039901208840029006980088C7
:100200000299084004900498029988422AD1FFE795
:1002100003988000029002990F2088400090009976
:100220000198884301900598029900FA01F101981C
:10023000084301900698C078282806D1FFE7039963
:1002400001208840079948610BE00698C07848284B
:1002500006D1FFE703990120884007990861FFE76D
:10026000FFE7FFE7FFE7039801300390BEE701983F
:1002700007990860FFE706980088B0F5807F50DB9B
:10028000FFE707984068019000200390FFE703987C
:10029000072842D8FFE7039800F1080101208840B1
:1002A00002900698008802990840049004980299E8
:1002B00088422DD1FFE703988000029002990F2019
:1002C0008840009000990198884301900598029910
:1002D00000FA01F10198084301900698C078282897
:1002E00008D1FFE7039800F1080101208840079931
:1002F0004861FFE70698C078482808D1FFE70398CF
:1003000000F108010120884007990861FFE7FFE735
:10031000FFE7039801300390B9E701980799486017
:10032000FFE708B07047000082B00190ADF80210FE
:1003300000208DF8010001988068BDF80210084285
:1003400004D0FFE701208DF8010003E000208DF8C4
:100350000100FFE79DF8010002B0704782B00190F4
:10036000ADF80210BDF802000199486102B0704773
:1003700082B00190ADF80210BDF802000199086149
:1003800002B07047FFE7FEE780B582B01020012180
:1003900000F044F82020ADF8040048208DF8070054
:1003A00041F20000C4F2010001A9FFF7F9FE02B01A
:1003B00080BD000080B582B00420012100F02EF83D
:1003C0004FF48070ADF8040010208DF80700022073
:1003D0008DF8060040F60000C4F2010001A9FFF705
:1003E000DFFE02B080BD000080B540F60000C4F220
:1003F00001004FF48071FFF7BBFF80BD80B540F670
:100400000000C4F201004FF48071FFF7A7FF80BD28
:10041000FFE7FEE7704700007047000082B00190E0
:100420008DF803109DF8030048B1FFE7019A41F2EF
:100430001801C4F2020108681043086008E0019A3C
:1004400041F21801C4F20201086890430860FFE716
:1004500002B070477047000080B500F001F880BD21
:1004600084B000200390029041F20001C4F2020126
:10047000086840F480300860FFE741F20000C4F2F1
:100480000200006800F400300290039801300390ED
:10049000FFE702990020019039B9FFE70398B0F512
:1004A000A06018BF01200190FFE70198C007002855
:1004B000E3D1FFE741F20000C4F2020000688003CC
:1004C000002803D5FFE70120029002E000200290FF
:1004D000FFE70298012851D1FFE742F20001C4F280
:1004E0000201086840F010000860086820F007006A
:1004F0000860086840F00200086041F20401C4F29C
:10050000020100910868086008680860086840F403
:1005100080600860086820F47C100860086840F477
:10052000E810086041F20001C4F20201086840F0DE
:1005300080700860FFE741F20000C4F2020000682A
:100540008001002801D4FFE7F5E741F20401C4F27D
:100550000201086820F003000860086840F002000B
:100560000860FFE741F20400C4F20200006800F0F6
:100570000C00082801D0FFE7F4E700E0FFE704B033
:10058000704700007047000080B541F20002C4F2DD
:100590000202106840F00100106041F20401C4F250
:1005A000020108680023CFF6FF03184008601068B6
:1005B0004FF6FF73CFF6F66318401060106820F412
:1005C00080201060086820F4FE00086041F20801F5
:1005D000C4F202014FF41F000860FFF73DFF4EF622
:1005E0000851CEF200014FF00060086080BD0000AD
:1005F000FFE7FEE780B582B000200190FFF7DAFE4A
:10060000FFF7C2FEFFE741F20000C4F20100202123
:10061000FFF78AFE18B9FFE7FFF7F0FE02E0FFF7E9
:10062000E3FEFFE7EFE702E008C8121F08C1002A57
:10063000FAD170477047002001E001C1121F002A63
:10064000FBD17047540600080000002000040000A1
:040650003606000862
:0400000508000131BD
:00000001FF
