:020000040800F2
:100000000004002045010008DD040008D5040008B4
:10001000D9040008990100085106000800000000FA
:10002000000000000000000000000000FD040008C7
:100030009D01000800000000E1040008010500081F
:100040005F0100085F0100085F0100085F01000810
:100050005F0100085F0100085F0100085F01000800
:100060005F0100085F0100085F0100085F010008F0
:100070005F0100085F0100085F0100085F010008E0
:100080005F0100085F0100085F0100085F010008D0
:100090005F0100085F0100085F0100085F010008C0
:1000A0005F0100085F0100085F0100085F010008B0
:1000B0005F0100085F0100085F0100085F010008A0
:1000C0005F0100085F0100085F0100085F01000890
:1000D0005F0100085F0100085F0100085F01000880
:1000E0005F0100085F0100085F0100085F01000870
:1000F0005F0100085F0100085F0100085F01000860
:100100005F0100085F0100085F0100085F0100084F
:100110005F0100085F0100085F0100085F0100083F
:100120005F0100085F0100085F0100085F0100082F
:10013000DFF80CD000F018F800480047550600081A
:10014000000400200648804706480047FEE7FEE717
:10015000FEE7FEE7FEE7FEE7FEE7FEE7FEE7FEE777
:1001600005050008310100081CB509480090094840
:1001700001900546009C06E0E06840F0010394E829
:10018000070098471034AC42F6D3FFF7D5FF0000C4
:100190000407000814070008FEE70000704700008D
:1001A00091F803C00CF00F035FEACC6244BF8A7879
:1001B000134370B509885FEA016E00F0F0800268B1
:1001C0005FFA8CF4282C17D0482C2FD1CC075FD1A4
:1001D0008C0764D44C076AD40C0770D4CC0677D44F
:1001E0008C0600F17E804C0600F18480BEF1000F89
:1001F00000F18980D2E000BFCC0740F08B808C07F3
:1002000000F190804C0700F196800C0700F19C8073
:10021000CC0600F1A2808C0600F1A8804C0600F10B
:10022000AE80BEF1000F00F1B380B7E022F00F0402
:10023000CD0718BF44EA030222F0F0048D0748BF3F
:1002400044EA031222F470644D0748BF44EA0322D3
:1002500022F470440D0748BF44EA033222F47024AC
:10026000CD0648BF44EA034222F470048D0648BF1D
:1002700044EA035222F070644D0648BF44EA036228
:10028000BEF1000F44BF22F0704242EA037285E0E3
:1002900022F00F021A43012404618C079AD522F040
:1002A000F00242EA0312022404614C0794D522F4BE
:1002B000706242EA0322042404610C078ED522F402
:1002C000704242EA033208240461CC067FF588AF0D
:1002D00022F4702242EA0342102404618C067FF566
:1002E00082AF22F4700242EA0352202404614C06D9
:1002F0007FF57CAF22F0706242EA03624024046121
:10030000BEF1000F4AD522F07042802642EA037205
:10031000066143E022F00F021A43012444618C0776
:100320007FF570AF22F0F00242EA0312022444612A
:100330004C077FF56AAF22F4706242EA032204247C
:1003400044610C077FF564AF22F4704242EA033245
:1003500008244461CC067FF55EAF22F4702242EAA5
:100360000342102444618C067FF558AF22F47002DA
:1003700042EA0352202444614C067FF552AF22F03A
:10038000706242EA036240244461BEF1000F05D569
:1003900022F07042802642EA037246610260B1F5A3
:1003A000807F38BF70BD4268CC0500F1100E00F1AF
:1003B00014040DD522F00F025FFA8CF61A43282E92
:1003C000254602D0482E03D175464FF480762E6024
:1003D0008D050ED522F0F0025FFA8CF642EA031288
:1003E000482E754602D0282E03D125464FF40076BC
:1003F0002E604D050ED522F470625FFA8CF642EA4B
:100400000322482E754602D0282E03D125464FF4EC
:1004100080662E600D050ED522F470425FFA8CF6D0
:1004200042EA0332482E754602D0282E03D12546D3
:100430004FF400662E60CD040ED522F470225FFAD0
:100440008CF642EA0342482E754602D0282E03D18C
:1004500025464FF480562E608D040ED522F470028E
:100460005FFA8CF642EA0352482E754602D0282ED7
:1004700003D125464FF400562E604D040ED522F0D0
:1004800070625FFA8CF642EA0362482E754602D02B
:10049000282E03D125464FF480462E6009B2B1F1D3
:1004A000FF3F01DD426070BD22F070425FFA8CF1C7
:1004B000482942EA037202D02829F3D1A6464FF414
:1004C0000041CEF80010426070BD000041617047ED
:1004D00001617047FEE70000FEE700007047000082
:1004E00070470000002941F21801C4F202010A68B5
:1004F0000CBF22EA000010430860704770470000FC
:100500007047000082B041F20400C4F2020050F8CB
:10051000041C002241F0010140F8041C0168CFF6E0
:10052000FF021140016050F8041C4FF6FF72CFF635
:10053000F662114040F8041C50F8041C21F480219C
:1005400040F8041C016821F4FE0101604FF41F0112
:10055000416000210191009150F8041C41F4803168
:1005600040F8041C50F8041C01F40031009101997A
:1005700001310191009919B90199B1F5A06FF1D13B
:1005800050F8041C890354BF0021012100910099F7
:10059000012953D142F20001C4F202010A6842F07B
:1005A00010020A600A6822F007020A600A6842F034
:1005B00002020A600168016001680160016841F49B
:1005C00080610160016821F47C110160016841F4DF
:1005D000E811016050F8041C41F0807140F8041CDF
:1005E00050F8041C89010CD450F8041C89015CBF2C
:1005F00050F8041C5FEA811103D450F8041C8901EF
:10060000EED5016821F003010160016841F00201AB
:10061000016000BF016801F00C0108290ED00168DB
:1006200001F00C01082909D0016801F00C0108292A
:1006300004D0016801F00C010829EBD14EF60850F6
:10064000CEF200004FF00061016002B07047000080
:10065000FEE7000084B040F600044FF6FF7504206A
:100660000121C4F20104C0F25F05FFF73BFF40F235
:100670000010C1F20200019001A92046FFF790FD91
:1006800020464FF48071FFF721FF0020029500BF44
:10069000029988420DD202990130884209D202990A
:1006A0000130884205D20299421C8A4200F10200C0
:1006B000EED320464FF48071FFF70AFF0020039528
:1006C00003998842DCD2039901308842D8D2039939
:1006D00001308842D4D20399421C8A4200F10200C0
:1006E000EED3CDE702E008C8121F08C1002AFAD1F4
:1006F00070477047002001E001C1121F002AFBD1A2
:1007000070470000140700080000002000040000EB
:04071000F4060008E3
:0400000508000131BD
:00000001FF
