:020000040800F2
:10000000000400204501000819040008B503000899
:1000100015040008FD010008E907000800000000C1
:100020000000000000000000000000009104000833
:1000300001020008000000001D040008C1050008BE
:100040005F0100085F0100085F0100085F01000810
:100050005F0100085F0100085F0100085F01000800
:100060005F0100085F0100085F0100085F010008F0
:100070005F0100085F0100085F0100085F010008E0
:100080005F0100085F0100085F0100085F010008D0
:100090005F0100085F0100085F0100085F010008C0
:1000A0005F0100085F0100085F0100085F010008B0
:1000B0005F0100085F0100085F0100085F010008A0
:1000C0005F0100085F0100085F0100085F01000890
:1000D0005F0100085F0100085F0100085F01000880
:1000E0005F0100085F0100085F0100085F01000870
:1000F0005F0100085F0100085F0100085F01000860
:100100005F0100085F0100085F0100085F0100084F
:100110005F0100085F0100085F0100085F0100083F
:100120005F0100085F0100085F0100085F0100082F
:10013000DFF80CD000F018F800480047ED07000881
:10014000000400200648804706480047FEE7FEE717
:10015000FEE7FEE7FEE7FEE7FEE7FEE7FEE7FEE777
:10016000C5050008310100081CB509480090094880
:1001700001900546009C06E0E06840F0010394E829
:10018000070098471034AC42F6D3FFF7D5FF0000C4
:100190002C0800083C08000880B586B001210191B8
:1001A000084600F03DF94FF47A70ADF8120044F6BD
:1001B0001010ADF80E0000200290ADF81400ADF85C
:1001C00010008DF816004FF0804000900DF10E01E8
:1001D00000F068FA0098019900F028FA0098019A56
:1001E000114600F045FA0098019900F02BFA0198A9
:1001F000029900F015F906B080BD0000FFE7FEE7A8
:100200007047000088B00790069100200590049088
:1002100003900290019000900698C07800F00F00C3
:1002200005900698C078C006002806D5FFE7069816
:100230008178059808430590FFE706980078002824
:100240004BD0FFE707980068019000200390FFE77C
:10025000039807283DD8FFE70399012088400290C2
:1002600006980088029908400490049802998842F0
:100270002AD1FFE703988000029002990F2088405E
:10028000009000990198884301900598029900FA1E
:1002900001F10198084301900698C078282806D1FA
:1002A000FFE7039901208840079948610BE0069811
:1002B000C078482806D1FFE70399012088400799B4
:1002C0000861FFE7FFE7FFE7FFE7039801300390CE
:1002D000BEE7019807990860FFE706980088B0F527
:1002E000807F50DBFFE70798406801900020039073
:1002F000FFE70398072842D8FFE7039800F10801B9
:1003000001208840029006980088029908400490D5
:100310000498029988422DD1FFE70398800002904B
:1003200002990F208840009000990198884301901D
:100330000598029900FA01F1019808430190069886
:10034000C078282808D1FFE7039800F108010120B0
:10035000884007994861FFE70698C078482808D187
:10036000FFE7039800F10801012088400799086120
:10037000FFE7FFE7FFE7039801300390B9E7019833
:1003800007994860FFE708B07047000082B001900D
:10039000ADF80210BDF802000199486102B0704743
:1003A00082B00190ADF80210BDF802000199086119
:1003B00002B07047FFE7FEE780B540F60000C4F2E8
:1003C00001004FF48071FFF7EBFF80BD80B540F670
:1003D0000000C4F201004FF48071FFF7D7FF80BD29
:1003E00080B582B00420012100F036F84FF480700F
:1003F000ADF8040010208DF8070002208DF80600EB
:1004000040F60000C4F2010001A9FFF7FBFE02B0B4
:1004100080BD0000FFE7FEE7704700007047000066
:1004200082B001908DF803109DF8030048B1FFE7FA
:10043000019A41F21C01C4F20201086810430860ED
:1004400008E0019A41F21C01C4F2020108689043DD
:100450000860FFE702B0704782B001908DF803108A
:100460009DF8030048B1FFE7019A41F21801C4F278
:10047000020108681043086008E0019A41F218017F
:10048000C4F20201086890430860FFE702B07047B9
:100490007047000080B500F001F880BD84B00020F6
:1004A0000390029041F20001C4F20201086840F496
:1004B00080300860FFE741F20000C4F202000068EB
:1004C00000F400300290039801300390FFE7029996
:1004D0000020019039B9FFE70398B0F5A06018BF7C
:1004E00001200190FFE70198C0070028E3D1FFE752
:1004F00041F20000C4F2020000688003002803D526
:10050000FFE70120029002E000200290FFE702983E
:10051000012851D1FFE742F20001C4F2020108684C
:1005200040F010000860086820F0070008600868C4
:1005300040F00200086041F20401C4F2020100919F
:100540000868086008680860086840F4806008600F
:10055000086820F47C100860086840F4E81008601F
:1005600041F20001C4F20201086840F080700860A6
:10057000FFE741F20000C4F2020000688001002899
:1005800001D4FFE7F5E741F20401C4F20201086873
:1005900020F003000860086840F002000860FFE7F0
:1005A00041F20400C4F20200006800F00C000828C8
:1005B00001D0FFE7F4E700E0FFE704B07047000078
:1005C0007047000080B541F20002C4F202021068D8
:1005D00040F00100106041F20401C4F20201086819
:1005E0000023CFF6FF031840086010684FF6FF7332
:1005F000CFF6F66318401060106820F48020106079
:10060000086820F4FE00086041F20801C4F202010B
:100610004FF41F000860FFF73DFF4EF60851CEF281
:1006200000014FF00060086080BD000082B00190C2
:10063000ADF80210BDF80200C0430199088202B073
:100640007047000082B001908DF803109DF8030000
:1006500030B1FFE70199088840F00100088005E00B
:100660000199088820F001000880FFE702B0704778
:1006700082B00190ADF802108DF801209DF80100C4
:1006800038B1FFE7BDF802200199888910438881BD
:1006900006E0BDF802200199888990438881FFE730
:1006A00002B0704783B0029001910020ADF80200C3
:1006B00002980088ADF80200029842F60041C4F2A8
:1006C0000101884225D0FFE7029843F20041C4F2BD
:1006D000010188421DD0FFE70298B0F1804F18D089
:1006E000FFE7029840F20041C4F20001884210D0B6
:1006F000FFE7029840F60001C4F20001884208D0EA
:10070000FFE7029840F60041C4F2000188420ED192
:10071000FFE7BDF8020020F07000ADF8020001987C
:100720004188BDF802000843ADF80200FFE70298D7
:1007300041F20001C4F20001884216D0FFE702989E
:1007400041F20041C4F2000188420ED0FFE7BDF83B
:10075000020020F44070ADF802000198C188BDF895
:1007600002000843ADF80200FFE7BDF8020002995D
:1007700008800198808802998885019800880299EC
:100780000885029842F60041C4F20101884220D057
:10079000FFE7029843F20041C4F20101884218D0F9
:1007A000FFE7029844F20001C4F20101884210D030
:1007B000FFE7029844F20041C4F20101884208D0E8
:1007C000FFE7029844F60001C4F20101884205D116
:1007D000FFE70198007A02990886FFE70299012055
:1007E000888203B070470000FFE7FEE780B582B063
:1007F00000200190FFF7F4FDFFE7FFF7E7FDFFF7AB
:10080000CBFCFFF7D9FDFFF7C7FCF6E702E008C80D
:10081000121F08C1002AFAD170477047002001E07A
:1008200001C1121F002AFBD1704700003C080008DC
:0C08300000000020000400001C0800086C
:0400000508000131BD
:00000001FF
